{
  "contractName": "CodeMavricksNFTs",
  "abi": [
    {
      "inputs": [],
      "stateMutability": "nonpayable",
      "type": "constructor"
    },
    {
      "anonymous": false,
      "inputs": [
        {
          "indexed": true,
          "internalType": "address",
          "name": "owner",
          "type": "address"
        },
        {
          "indexed": true,
          "internalType": "address",
          "name": "approved",
          "type": "address"
        },
        {
          "indexed": true,
          "internalType": "uint256",
          "name": "tokenId",
          "type": "uint256"
        }
      ],
      "name": "Approval",
      "type": "event"
    },
    {
      "anonymous": false,
      "inputs": [
        {
          "indexed": true,
          "internalType": "address",
          "name": "owner",
          "type": "address"
        },
        {
          "indexed": true,
          "internalType": "address",
          "name": "operator",
          "type": "address"
        },
        {
          "indexed": false,
          "internalType": "bool",
          "name": "approved",
          "type": "bool"
        }
      ],
      "name": "ApprovalForAll",
      "type": "event"
    },
    {
      "anonymous": false,
      "inputs": [
        {
          "indexed": true,
          "internalType": "address",
          "name": "from",
          "type": "address"
        },
        {
          "indexed": true,
          "internalType": "address",
          "name": "to",
          "type": "address"
        },
        {
          "indexed": true,
          "internalType": "uint256",
          "name": "tokenId",
          "type": "uint256"
        }
      ],
      "name": "Transfer",
      "type": "event"
    },
    {
      "inputs": [
        {
          "internalType": "address",
          "name": "to",
          "type": "address"
        },
        {
          "internalType": "uint256",
          "name": "tokenId",
          "type": "uint256"
        }
      ],
      "name": "approve",
      "outputs": [],
      "stateMutability": "nonpayable",
      "type": "function"
    },
    {
      "inputs": [
        {
          "internalType": "address",
          "name": "owner",
          "type": "address"
        }
      ],
      "name": "balanceOf",
      "outputs": [
        {
          "internalType": "uint256",
          "name": "",
          "type": "uint256"
        }
      ],
      "stateMutability": "view",
      "type": "function",
      "constant": true
    },
    {
      "inputs": [
        {
          "internalType": "uint256",
          "name": "tokenId",
          "type": "uint256"
        }
      ],
      "name": "getApproved",
      "outputs": [
        {
          "internalType": "address",
          "name": "",
          "type": "address"
        }
      ],
      "stateMutability": "view",
      "type": "function",
      "constant": true
    },
    {
      "inputs": [
        {
          "internalType": "address",
          "name": "owner",
          "type": "address"
        },
        {
          "internalType": "address",
          "name": "operator",
          "type": "address"
        }
      ],
      "name": "isApprovedForAll",
      "outputs": [
        {
          "internalType": "bool",
          "name": "",
          "type": "bool"
        }
      ],
      "stateMutability": "view",
      "type": "function",
      "constant": true
    },
    {
      "inputs": [],
      "name": "name",
      "outputs": [
        {
          "internalType": "string",
          "name": "",
          "type": "string"
        }
      ],
      "stateMutability": "view",
      "type": "function",
      "constant": true
    },
    {
      "inputs": [
        {
          "internalType": "address",
          "name": "from",
          "type": "address"
        },
        {
          "internalType": "address",
          "name": "to",
          "type": "address"
        },
        {
          "internalType": "uint256",
          "name": "tokenId",
          "type": "uint256"
        }
      ],
      "name": "safeTransferFrom",
      "outputs": [],
      "stateMutability": "nonpayable",
      "type": "function"
    },
    {
      "inputs": [
        {
          "internalType": "address",
          "name": "from",
          "type": "address"
        },
        {
          "internalType": "address",
          "name": "to",
          "type": "address"
        },
        {
          "internalType": "uint256",
          "name": "tokenId",
          "type": "uint256"
        },
        {
          "internalType": "bytes",
          "name": "data",
          "type": "bytes"
        }
      ],
      "name": "safeTransferFrom",
      "outputs": [],
      "stateMutability": "nonpayable",
      "type": "function"
    },
    {
      "inputs": [
        {
          "internalType": "address",
          "name": "operator",
          "type": "address"
        },
        {
          "internalType": "bool",
          "name": "approved",
          "type": "bool"
        }
      ],
      "name": "setApprovalForAll",
      "outputs": [],
      "stateMutability": "nonpayable",
      "type": "function"
    },
    {
      "inputs": [
        {
          "internalType": "bytes4",
          "name": "interfaceId",
          "type": "bytes4"
        }
      ],
      "name": "supportsInterface",
      "outputs": [
        {
          "internalType": "bool",
          "name": "",
          "type": "bool"
        }
      ],
      "stateMutability": "view",
      "type": "function",
      "constant": true
    },
    {
      "inputs": [],
      "name": "symbol",
      "outputs": [
        {
          "internalType": "string",
          "name": "",
          "type": "string"
        }
      ],
      "stateMutability": "view",
      "type": "function",
      "constant": true
    },
    {
      "inputs": [
        {
          "internalType": "address",
          "name": "from",
          "type": "address"
        },
        {
          "internalType": "address",
          "name": "to",
          "type": "address"
        },
        {
          "internalType": "uint256",
          "name": "tokenId",
          "type": "uint256"
        }
      ],
      "name": "transferFrom",
      "outputs": [],
      "stateMutability": "nonpayable",
      "type": "function"
    },
    {
      "inputs": [
        {
          "internalType": "address",
          "name": "to",
          "type": "address"
        }
      ],
      "name": "mint",
      "outputs": [
        {
          "internalType": "uint256",
          "name": "",
          "type": "uint256"
        }
      ],
      "stateMutability": "nonpayable",
      "type": "function"
    },
    {
      "inputs": [
        {
          "internalType": "uint256",
          "name": "_tokenId",
          "type": "uint256"
        }
      ],
      "name": "ownerOf",
      "outputs": [
        {
          "internalType": "address",
          "name": "",
          "type": "address"
        }
      ],
      "stateMutability": "view",
      "type": "function",
      "constant": true
    },
    {
      "inputs": [
        {
          "internalType": "uint256",
          "name": "tokenId",
          "type": "uint256"
        }
      ],
      "name": "tokenURI",
      "outputs": [
        {
          "internalType": "string",
          "name": "",
          "type": "string"
        }
      ],
      "stateMutability": "view",
      "type": "function",
      "constant": true
    }
  ],
  "bytecode": "0x60806040523480156200001157600080fd5b506040518060400160405280601481526020017f6c6570726f6772616d6d65726d61726f6361696e0000000000000000000000008152506040518060400160405280600581526020017f70676d617200000000000000000000000000000000000000000000000000000081525081600090816200008f919062000324565b508060019081620000a1919062000324565b5050506200040b565b600081519050919050565b7f4e487b7100000000000000000000000000000000000000000000000000000000600052604160045260246000fd5b7f4e487b7100000000000000000000000000000000000000000000000000000000600052602260045260246000fd5b600060028204905060018216806200012c57607f821691505b602082108103620001425762000141620000e4565b5b50919050565b60008190508160005260206000209050919050565b60006020601f8301049050919050565b600082821b905092915050565b600060088302620001ac7fffffffffffffffffffffffffffffffffffffffffffffffffffffffffffffffff826200016d565b620001b886836200016d565b95508019841693508086168417925050509392505050565b6000819050919050565b6000819050919050565b600062000205620001ff620001f984620001d0565b620001da565b620001d0565b9050919050565b6000819050919050565b6200022183620001e4565b6200023962000230826200020c565b8484546200017a565b825550505050565b600090565b6200025062000241565b6200025d81848462000216565b505050565b5b8181101562000285576200027960008262000246565b60018101905062000263565b5050565b601f821115620002d4576200029e8162000148565b620002a9846200015d565b81016020851015620002b9578190505b620002d1620002c8856200015d565b83018262000262565b50505b505050565b600082821c905092915050565b6000620002f960001984600802620002d9565b1980831691505092915050565b6000620003148383620002e6565b9150826002028217905092915050565b6200032f82620000aa565b67ffffffffffffffff8111156200034b576200034a620000b5565b5b62000357825462000113565b6200036482828562000289565b600060209050601f8311600181146200039c576000841562000387578287015190505b62000393858262000306565b86555062000403565b601f198416620003ac8662000148565b60005b82811015620003d657848901518255600182019150602085019450602081019050620003af565b86831015620003f65784890151620003f2601f891682620002e6565b8355505b6001600288020188555050505b505050505050565b61290a806200041b6000396000f3fe608060405234801561001057600080fd5b50600436106100ea5760003560e01c80636a6278421161008c578063a22cb46511610066578063a22cb4651461026f578063b88d4fde1461028b578063c87b56dd146102a7578063e985e9c5146102d7576100ea565b80636a627842146101f157806370a082311461022157806395d89b4114610251576100ea565b8063095ea7b3116100c8578063095ea7b31461016d57806323b872dd1461018957806342842e0e146101a55780636352211e146101c1576100ea565b806301ffc9a7146100ef57806306fdde031461011f578063081812fc1461013d575b600080fd5b61010960048036038101906101049190611a76565b610307565b6040516101169190611abe565b60405180910390f35b6101276103e9565b6040516101349190611b69565b60405180910390f35b61015760048036038101906101529190611bc1565b61047b565b6040516101649190611c2f565b60405180910390f35b61018760048036038101906101829190611c76565b6104c1565b005b6101a3600480360381019061019e9190611cb6565b6105d8565b005b6101bf60048036038101906101ba9190611cb6565b610638565b005b6101db60048036038101906101d69190611bc1565b610658565b6040516101e89190611c2f565b60405180910390f35b61020b60048036038101906102069190611d09565b6106f5565b6040516102189190611d45565b60405180910390f35b61023b60048036038101906102369190611d09565b6107b5565b6040516102489190611d45565b60405180910390f35b61025961086c565b6040516102669190611b69565b60405180910390f35b61028960048036038101906102849190611d8c565b6108fe565b005b6102a560048036038101906102a09190611f01565b610914565b005b6102c160048036038101906102bc9190611bc1565b610976565b6040516102ce9190611b69565b60405180910390f35b6102f160048036038101906102ec9190611f84565b6109d5565b6040516102fe9190611abe565b60405180910390f35b60007f80ac58cd000000000000000000000000000000000000000000000000000000007bffffffffffffffffffffffffffffffffffffffffffffffffffffffff1916827bffffffffffffffffffffffffffffffffffffffffffffffffffffffff191614806103d257507f5b5e139f000000000000000000000000000000000000000000000000000000007bffffffffffffffffffffffffffffffffffffffffffffffffffffffff1916827bffffffffffffffffffffffffffffffffffffffffffffffffffffffff1916145b806103e257506103e182610a69565b5b9050919050565b6060600080546103f890611ff3565b80601f016020809104026020016040519081016040528092919081815260200182805461042490611ff3565b80156104715780601f1061044657610100808354040283529160200191610471565b820191906000526020600020905b81548152906001019060200180831161045457829003601f168201915b5050505050905090565b600061048682610ad3565b6004600083815260200190815260200160002060009054906101000a900473ffffffffffffffffffffffffffffffffffffffff169050919050565b60006104cc82610b1e565b90508073ffffffffffffffffffffffffffffffffffffffff168373ffffffffffffffffffffffffffffffffffffffff160361053c576040517f08c379a000000000000000000000000000000000000000000000000000000000815260040161053390612096565b60405180910390fd5b8073ffffffffffffffffffffffffffffffffffffffff1661055b610ba4565b73ffffffffffffffffffffffffffffffffffffffff16148061058a575061058981610584610ba4565b6109d5565b5b6105c9576040517f08c379a00000000000000000000000000000000000000000000000000000000081526004016105c090612128565b60405180910390fd5b6105d38383610bac565b505050565b6105e96105e3610ba4565b82610c65565b610628576040517f08c379a000000000000000000000000000000000000000000000000000000000815260040161061f906121ba565b60405180910390fd5b610633838383610cfa565b505050565b61065383838360405180602001604052806000815250610914565b505050565b60006008600083815260200190815260200160002060009054906101000a900460ff166106ba576040517f08c379a00000000000000000000000000000000000000000000000000000000081526004016106b190612226565b60405180910390fd5b6007600083815260200190815260200160002060009054906101000a900473ffffffffffffffffffffffffffffffffffffffff169050919050565b60006107016006610ff3565b81600760006107106006611009565b815260200190815260200160002060006101000a81548173ffffffffffffffffffffffffffffffffffffffff021916908373ffffffffffffffffffffffffffffffffffffffff16021790555060016008600061076c6006611009565b815260200190815260200160002060006101000a81548160ff0219169083151502179055506107a48261079f6006611009565b611017565b6107ae6006611009565b9050919050565b60008073ffffffffffffffffffffffffffffffffffffffff168273ffffffffffffffffffffffffffffffffffffffff1603610825576040517f08c379a000000000000000000000000000000000000000000000000000000000815260040161081c906122b8565b60405180910390fd5b600360008373ffffffffffffffffffffffffffffffffffffffff1673ffffffffffffffffffffffffffffffffffffffff168152602001908152602001600020549050919050565b60606001805461087b90611ff3565b80601f01602080910402602001604051908101604052809291908181526020018280546108a790611ff3565b80156108f45780601f106108c9576101008083540402835291602001916108f4565b820191906000526020600020905b8154815290600101906020018083116108d757829003601f168201915b5050505050905090565b610910610909610ba4565b8383611035565b5050565b61092561091f610ba4565b83610c65565b610964576040517f08c379a000000000000000000000000000000000000000000000000000000000815260040161095b906121ba565b60405180910390fd5b610970848484846111a1565b50505050565b606060006109826111fd565b905060008151116109a257604051806020016040528060008152506109cd565b806109ac8461121d565b6040516020016109bd929190612360565b6040516020818303038152906040525b915050919050565b6000600560008473ffffffffffffffffffffffffffffffffffffffff1673ffffffffffffffffffffffffffffffffffffffff16815260200190815260200160002060008373ffffffffffffffffffffffffffffffffffffffff1673ffffffffffffffffffffffffffffffffffffffff16815260200190815260200160002060009054906101000a900460ff16905092915050565b60007f01ffc9a7000000000000000000000000000000000000000000000000000000007bffffffffffffffffffffffffffffffffffffffffffffffffffffffff1916827bffffffffffffffffffffffffffffffffffffffffffffffffffffffff1916149050919050565b610adc816112eb565b610b1b576040517f08c379a0000000000000000000000000000000000000000000000000000000008152600401610b12906123db565b60405180910390fd5b50565b600080610b2a8361132c565b9050600073ffffffffffffffffffffffffffffffffffffffff168173ffffffffffffffffffffffffffffffffffffffff1603610b9b576040517f08c379a0000000000000000000000000000000000000000000000000000000008152600401610b92906123db565b60405180910390fd5b80915050919050565b600033905090565b816004600083815260200190815260200160002060006101000a81548173ffffffffffffffffffffffffffffffffffffffff021916908373ffffffffffffffffffffffffffffffffffffffff160217905550808273ffffffffffffffffffffffffffffffffffffffff16610c1f83610b1e565b73ffffffffffffffffffffffffffffffffffffffff167f8c5be1e5ebec7d5bd14f71427d1e84f3dd0314c0f7b2291e5b200ac8c7c3b92560405160405180910390a45050565b600080610c7183610b1e565b90508073ffffffffffffffffffffffffffffffffffffffff168473ffffffffffffffffffffffffffffffffffffffff161480610cb35750610cb281856109d5565b5b80610cf157508373ffffffffffffffffffffffffffffffffffffffff16610cd98461047b565b73ffffffffffffffffffffffffffffffffffffffff16145b91505092915050565b8273ffffffffffffffffffffffffffffffffffffffff16610d1a82610b1e565b73ffffffffffffffffffffffffffffffffffffffff1614610d70576040517f08c379a0000000000000000000000000000000000000000000000000000000008152600401610d679061246d565b60405180910390fd5b600073ffffffffffffffffffffffffffffffffffffffff168273ffffffffffffffffffffffffffffffffffffffff1603610ddf576040517f08c379a0000000000000000000000000000000000000000000000000000000008152600401610dd6906124ff565b60405180910390fd5b610dec8383836001611369565b8273ffffffffffffffffffffffffffffffffffffffff16610e0c82610b1e565b73ffffffffffffffffffffffffffffffffffffffff1614610e62576040517f08c379a0000000000000000000000000000000000000000000000000000000008152600401610e599061246d565b60405180910390fd5b6004600082815260200190815260200160002060006101000a81549073ffffffffffffffffffffffffffffffffffffffff02191690556001600360008573ffffffffffffffffffffffffffffffffffffffff1673ffffffffffffffffffffffffffffffffffffffff168152602001908152602001600020600082825403925050819055506001600360008473ffffffffffffffffffffffffffffffffffffffff1673ffffffffffffffffffffffffffffffffffffffff16815260200190815260200160002060008282540192505081905550816002600083815260200190815260200160002060006101000a81548173ffffffffffffffffffffffffffffffffffffffff021916908373ffffffffffffffffffffffffffffffffffffffff160217905550808273ffffffffffffffffffffffffffffffffffffffff168473ffffffffffffffffffffffffffffffffffffffff167fddf252ad1be2c89b69c2b068fc378daa952ba7f163c4a11628f55a4df523b3ef60405160405180910390a4610fee838383600161148f565b505050565b6001816000016000828254019250508190555050565b600081600001549050919050565b611031828260405180602001604052806000815250611495565b5050565b8173ffffffffffffffffffffffffffffffffffffffff168373ffffffffffffffffffffffffffffffffffffffff16036110a3576040517f08c379a000000000000000000000000000000000000000000000000000000000815260040161109a9061256b565b60405180910390fd5b80600560008573ffffffffffffffffffffffffffffffffffffffff1673ffffffffffffffffffffffffffffffffffffffff16815260200190815260200160002060008473ffffffffffffffffffffffffffffffffffffffff1673ffffffffffffffffffffffffffffffffffffffff16815260200190815260200160002060006101000a81548160ff0219169083151502179055508173ffffffffffffffffffffffffffffffffffffffff168373ffffffffffffffffffffffffffffffffffffffff167f17307eab39ab6107e8899845ad3d59bd9653f200f220920489ca2b5937696c31836040516111949190611abe565b60405180910390a3505050565b6111ac848484610cfa565b6111b8848484846114f0565b6111f7576040517f08c379a00000000000000000000000000000000000000000000000000000000081526004016111ee906125fd565b60405180910390fd5b50505050565b606060405180606001604052806036815260200161289f60369139905090565b60606000600161122c84611677565b01905060008167ffffffffffffffff81111561124b5761124a611dd6565b5b6040519080825280601f01601f19166020018201604052801561127d5781602001600182028036833780820191505090505b509050600082602001820190505b6001156112e0578080600190039150507f3031323334353637383961626364656600000000000000000000000000000000600a86061a8153600a85816112d4576112d361261d565b5b0494506000850361128b575b819350505050919050565b60008073ffffffffffffffffffffffffffffffffffffffff1661130d8361132c565b73ffffffffffffffffffffffffffffffffffffffff1614159050919050565b60006002600083815260200190815260200160002060009054906101000a900473ffffffffffffffffffffffffffffffffffffffff169050919050565b600181111561148957600073ffffffffffffffffffffffffffffffffffffffff168473ffffffffffffffffffffffffffffffffffffffff16146113fd5780600360008673ffffffffffffffffffffffffffffffffffffffff1673ffffffffffffffffffffffffffffffffffffffff16815260200190815260200160002060008282546113f5919061267b565b925050819055505b600073ffffffffffffffffffffffffffffffffffffffff168373ffffffffffffffffffffffffffffffffffffffff16146114885780600360008573ffffffffffffffffffffffffffffffffffffffff1673ffffffffffffffffffffffffffffffffffffffff168152602001908152602001600020600082825461148091906126af565b925050819055505b5b50505050565b50505050565b61149f83836117ca565b6114ac60008484846114f0565b6114eb576040517f08c379a00000000000000000000000000000000000000000000000000000000081526004016114e2906125fd565b60405180910390fd5b505050565b60006115118473ffffffffffffffffffffffffffffffffffffffff166119e7565b1561166a578373ffffffffffffffffffffffffffffffffffffffff1663150b7a0261153a610ba4565b8786866040518563ffffffff1660e01b815260040161155c9493929190612738565b6020604051808303816000875af192505050801561159857506040513d601f19601f820116820180604052508101906115959190612799565b60015b61161a573d80600081146115c8576040519150601f19603f3d011682016040523d82523d6000602084013e6115cd565b606091505b506000815103611612576040517f08c379a0000000000000000000000000000000000000000000000000000000008152600401611609906125fd565b60405180910390fd5b805181602001fd5b63150b7a0260e01b7bffffffffffffffffffffffffffffffffffffffffffffffffffffffff1916817bffffffffffffffffffffffffffffffffffffffffffffffffffffffff19161491505061166f565b600190505b949350505050565b600080600090507a184f03e93ff9f4daa797ed6e38ed64bf6a1f01000000000000000083106116d5577a184f03e93ff9f4daa797ed6e38ed64bf6a1f01000000000000000083816116cb576116ca61261d565b5b0492506040810190505b6d04ee2d6d415b85acef81000000008310611712576d04ee2d6d415b85acef810000000083816117085761170761261d565b5b0492506020810190505b662386f26fc10000831061174157662386f26fc1000083816117375761173661261d565b5b0492506010810190505b6305f5e100831061176a576305f5e10083816117605761175f61261d565b5b0492506008810190505b612710831061178f5761271083816117855761178461261d565b5b0492506004810190505b606483106117b257606483816117a8576117a761261d565b5b0492506002810190505b600a83106117c1576001810190505b80915050919050565b600073ffffffffffffffffffffffffffffffffffffffff168273ffffffffffffffffffffffffffffffffffffffff1603611839576040517f08c379a000000000000000000000000000000000000000000000000000000000815260040161183090612812565b60405180910390fd5b611842816112eb565b15611882576040517f08c379a00000000000000000000000000000000000000000000000000000000081526004016118799061287e565b60405180910390fd5b611890600083836001611369565b611899816112eb565b156118d9576040517f08c379a00000000000000000000000000000000000000000000000000000000081526004016118d09061287e565b60405180910390fd5b6001600360008473ffffffffffffffffffffffffffffffffffffffff1673ffffffffffffffffffffffffffffffffffffffff16815260200190815260200160002060008282540192505081905550816002600083815260200190815260200160002060006101000a81548173ffffffffffffffffffffffffffffffffffffffff021916908373ffffffffffffffffffffffffffffffffffffffff160217905550808273ffffffffffffffffffffffffffffffffffffffff16600073ffffffffffffffffffffffffffffffffffffffff167fddf252ad1be2c89b69c2b068fc378daa952ba7f163c4a11628f55a4df523b3ef60405160405180910390a46119e360008383600161148f565b5050565b6000808273ffffffffffffffffffffffffffffffffffffffff163b119050919050565b6000604051905090565b600080fd5b600080fd5b60007fffffffff0000000000000000000000000000000000000000000000000000000082169050919050565b611a5381611a1e565b8114611a5e57600080fd5b50565b600081359050611a7081611a4a565b92915050565b600060208284031215611a8c57611a8b611a14565b5b6000611a9a84828501611a61565b91505092915050565b60008115159050919050565b611ab881611aa3565b82525050565b6000602082019050611ad36000830184611aaf565b92915050565b600081519050919050565b600082825260208201905092915050565b60005b83811015611b13578082015181840152602081019050611af8565b60008484015250505050565b6000601f19601f8301169050919050565b6000611b3b82611ad9565b611b458185611ae4565b9350611b55818560208601611af5565b611b5e81611b1f565b840191505092915050565b60006020820190508181036000830152611b838184611b30565b905092915050565b6000819050919050565b611b9e81611b8b565b8114611ba957600080fd5b50565b600081359050611bbb81611b95565b92915050565b600060208284031215611bd757611bd6611a14565b5b6000611be584828501611bac565b91505092915050565b600073ffffffffffffffffffffffffffffffffffffffff82169050919050565b6000611c1982611bee565b9050919050565b611c2981611c0e565b82525050565b6000602082019050611c446000830184611c20565b92915050565b611c5381611c0e565b8114611c5e57600080fd5b50565b600081359050611c7081611c4a565b92915050565b60008060408385031215611c8d57611c8c611a14565b5b6000611c9b85828601611c61565b9250506020611cac85828601611bac565b9150509250929050565b600080600060608486031215611ccf57611cce611a14565b5b6000611cdd86828701611c61565b9350506020611cee86828701611c61565b9250506040611cff86828701611bac565b9150509250925092565b600060208284031215611d1f57611d1e611a14565b5b6000611d2d84828501611c61565b91505092915050565b611d3f81611b8b565b82525050565b6000602082019050611d5a6000830184611d36565b92915050565b611d6981611aa3565b8114611d7457600080fd5b50565b600081359050611d8681611d60565b92915050565b60008060408385031215611da357611da2611a14565b5b6000611db185828601611c61565b9250506020611dc285828601611d77565b9150509250929050565b600080fd5b600080fd5b7f4e487b7100000000000000000000000000000000000000000000000000000000600052604160045260246000fd5b611e0e82611b1f565b810181811067ffffffffffffffff82111715611e2d57611e2c611dd6565b5b80604052505050565b6000611e40611a0a565b9050611e4c8282611e05565b919050565b600067ffffffffffffffff821115611e6c57611e6b611dd6565b5b611e7582611b1f565b9050602081019050919050565b82818337600083830152505050565b6000611ea4611e9f84611e51565b611e36565b905082815260208101848484011115611ec057611ebf611dd1565b5b611ecb848285611e82565b509392505050565b600082601f830112611ee857611ee7611dcc565b5b8135611ef8848260208601611e91565b91505092915050565b60008060008060808587031215611f1b57611f1a611a14565b5b6000611f2987828801611c61565b9450506020611f3a87828801611c61565b9350506040611f4b87828801611bac565b925050606085013567ffffffffffffffff811115611f6c57611f6b611a19565b5b611f7887828801611ed3565b91505092959194509250565b60008060408385031215611f9b57611f9a611a14565b5b6000611fa985828601611c61565b9250506020611fba85828601611c61565b9150509250929050565b7f4e487b7100000000000000000000000000000000000000000000000000000000600052602260045260246000fd5b6000600282049050600182168061200b57607f821691505b60208210810361201e5761201d611fc4565b5b50919050565b7f4552433732313a20617070726f76616c20746f2063757272656e74206f776e6560008201527f7200000000000000000000000000000000000000000000000000000000000000602082015250565b6000612080602183611ae4565b915061208b82612024565b604082019050919050565b600060208201905081810360008301526120af81612073565b9050919050565b7f4552433732313a20617070726f76652063616c6c6572206973206e6f7420746f60008201527f6b656e206f776e6572206f7220617070726f76656420666f7220616c6c000000602082015250565b6000612112603d83611ae4565b915061211d826120b6565b604082019050919050565b6000602082019050818103600083015261214181612105565b9050919050565b7f4552433732313a2063616c6c6572206973206e6f7420746f6b656e206f776e6560008201527f72206f7220617070726f76656400000000000000000000000000000000000000602082015250565b60006121a4602d83611ae4565b91506121af82612148565b604082019050919050565b600060208201905081810360008301526121d381612197565b9050919050565b7f746f6b656e20646f6573206e6f74206578697374000000000000000000000000600082015250565b6000612210601483611ae4565b915061221b826121da565b602082019050919050565b6000602082019050818103600083015261223f81612203565b9050919050565b7f4552433732313a2061646472657373207a65726f206973206e6f74206120766160008201527f6c6964206f776e65720000000000000000000000000000000000000000000000602082015250565b60006122a2602983611ae4565b91506122ad82612246565b604082019050919050565b600060208201905081810360008301526122d181612295565b9050919050565b600081905092915050565b60006122ee82611ad9565b6122f881856122d8565b9350612308818560208601611af5565b80840191505092915050565b7f2e6a736f6e000000000000000000000000000000000000000000000000000000600082015250565b600061234a6005836122d8565b915061235582612314565b600582019050919050565b600061236c82856122e3565b915061237882846122e3565b91506123838261233d565b91508190509392505050565b7f4552433732313a20696e76616c696420746f6b656e2049440000000000000000600082015250565b60006123c5601883611ae4565b91506123d08261238f565b602082019050919050565b600060208201905081810360008301526123f4816123b8565b9050919050565b7f4552433732313a207472616e736665722066726f6d20696e636f72726563742060008201527f6f776e6572000000000000000000000000000000000000000000000000000000602082015250565b6000612457602583611ae4565b9150612462826123fb565b604082019050919050565b600060208201905081810360008301526124868161244a565b9050919050565b7f4552433732313a207472616e7366657220746f20746865207a65726f2061646460008201527f7265737300000000000000000000000000000000000000000000000000000000602082015250565b60006124e9602483611ae4565b91506124f48261248d565b604082019050919050565b60006020820190508181036000830152612518816124dc565b9050919050565b7f4552433732313a20617070726f766520746f2063616c6c657200000000000000600082015250565b6000612555601983611ae4565b91506125608261251f565b602082019050919050565b6000602082019050818103600083015261258481612548565b9050919050565b7f4552433732313a207472616e7366657220746f206e6f6e20455243373231526560008201527f63656976657220696d706c656d656e7465720000000000000000000000000000602082015250565b60006125e7603283611ae4565b91506125f28261258b565b604082019050919050565b60006020820190508181036000830152612616816125da565b9050919050565b7f4e487b7100000000000000000000000000000000000000000000000000000000600052601260045260246000fd5b7f4e487b7100000000000000000000000000000000000000000000000000000000600052601160045260246000fd5b600061268682611b8b565b915061269183611b8b565b92508282039050818111156126a9576126a861264c565b5b92915050565b60006126ba82611b8b565b91506126c583611b8b565b92508282019050808211156126dd576126dc61264c565b5b92915050565b600081519050919050565b600082825260208201905092915050565b600061270a826126e3565b61271481856126ee565b9350612724818560208601611af5565b61272d81611b1f565b840191505092915050565b600060808201905061274d6000830187611c20565b61275a6020830186611c20565b6127676040830185611d36565b818103606083015261277981846126ff565b905095945050505050565b60008151905061279381611a4a565b92915050565b6000602082840312156127af576127ae611a14565b5b60006127bd84828501612784565b91505092915050565b7f4552433732313a206d696e7420746f20746865207a65726f2061646472657373600082015250565b60006127fc602083611ae4565b9150612807826127c6565b602082019050919050565b6000602082019050818103600083015261282b816127ef565b9050919050565b7f4552433732313a20746f6b656e20616c7265616479206d696e74656400000000600082015250565b6000612868601c83611ae4565b915061287382612832565b602082019050919050565b600060208201905081810360008301526128978161285b565b905091905056fe697066733a2f2f516d575a565533746d6e35394e376a773234316e6b325a674531713869324d775562574b4a6a794c6b3134316b312fa26469706673582212203e2d96a78fa76712a79d258d4e50a61a955154a9d55127631befd555b2793f5964736f6c63430008100033",
  "immutableReferences": {},
  "source": "// SPDX-License-Identifier: MIT\n\n\n\npragma solidity >=0.7.0 <0.9.0;\n\nimport \"@openzeppelin/contracts/token/ERC721/ERC721.sol\";\nimport \"@openzeppelin/contracts/utils/Counters.sol\";\n\ncontract CodeMavricksNFTs is ERC721 {\n     using Counters for Counters.Counter;\n    Counters.Counter private _tokenIdCounter;\n\n    mapping(uint256 => address) tokenOwner;\n    mapping(uint256 => bool) tokenExists;\n\n    constructor() ERC721(\"leprogrammermarocain\", \"pgmar\") {}\n\n    function mint(address to)\n        public returns (uint256)\n    {\n        _tokenIdCounter.increment();\n        tokenOwner[_tokenIdCounter.current()] = to;\n        tokenExists[_tokenIdCounter.current()] = true;\n        _safeMint(to, _tokenIdCounter.current());\n\n        return _tokenIdCounter.current();\n    }\n\n    function ownerOf(uint256 _tokenId) public view override returns(address) {\n      require(tokenExists[_tokenId],\"token does not exist\");\n      return tokenOwner[_tokenId];\n    }\n\n    function _baseURI() internal pure override returns (string memory) {\n      return \"ipfs://QmWZVU3tmn59N7jw241nk2ZgE1q8i2MwUbWKJjyLk141k1/\";\n    }\n\n  function tokenURI(uint256 tokenId)\n    public\n    view\n    virtual\n    override\n    returns (string memory)\n  {\n    \n    string memory currentBaseURI = _baseURI();\n    return bytes(currentBaseURI).length > 0\n        ? string(abi.encodePacked(currentBaseURI, Strings.toString(tokenId), \".json\"))\n        : \"\";\n  }\n}\n",
  "sourcePath": "/home/senyou/leprogrammeurmarocain/firstNft/contracts/NFT.sol",
  "compiler": {
    "name": "solc",
    "version": "0.8.16+commit.07a7930e.Emscripten.clang"
  },
  "schemaVersion": "3.4.9",
  "updatedAt": "2023-01-25T00:27:08.760Z",
  "networkType": "ethereum",
  "devdoc": {
    "kind": "dev",
    "methods": {
      "approve(address,uint256)": {
        "details": "See {IERC721-approve}."
      },
      "balanceOf(address)": {
        "details": "See {IERC721-balanceOf}."
      },
      "getApproved(uint256)": {
        "details": "See {IERC721-getApproved}."
      },
      "isApprovedForAll(address,address)": {
        "details": "See {IERC721-isApprovedForAll}."
      },
      "name()": {
        "details": "See {IERC721Metadata-name}."
      },
      "safeTransferFrom(address,address,uint256)": {
        "details": "See {IERC721-safeTransferFrom}."
      },
      "safeTransferFrom(address,address,uint256,bytes)": {
        "details": "See {IERC721-safeTransferFrom}."
      },
      "setApprovalForAll(address,bool)": {
        "details": "See {IERC721-setApprovalForAll}."
      },
      "supportsInterface(bytes4)": {
        "details": "See {IERC165-supportsInterface}."
      },
      "symbol()": {
        "details": "See {IERC721Metadata-symbol}."
      },
      "tokenURI(uint256)": {
        "details": "See {IERC721Metadata-tokenURI}."
      },
      "transferFrom(address,address,uint256)": {
        "details": "See {IERC721-transferFrom}."
      }
    },
    "version": 1
  },
  "userdoc": {
    "kind": "user",
    "methods": {},
    "version": 1
  }
}