{
  "contractName": "NFT",
  "abi": [
    {
      "inputs": [],
      "stateMutability": "nonpayable",
      "type": "constructor"
    },
    {
      "anonymous": false,
      "inputs": [
        {
          "indexed": true,
          "internalType": "address",
          "name": "owner",
          "type": "address"
        },
        {
          "indexed": true,
          "internalType": "address",
          "name": "approved",
          "type": "address"
        },
        {
          "indexed": true,
          "internalType": "uint256",
          "name": "tokenId",
          "type": "uint256"
        }
      ],
      "name": "Approval",
      "type": "event"
    },
    {
      "anonymous": false,
      "inputs": [
        {
          "indexed": true,
          "internalType": "address",
          "name": "owner",
          "type": "address"
        },
        {
          "indexed": true,
          "internalType": "address",
          "name": "operator",
          "type": "address"
        },
        {
          "indexed": false,
          "internalType": "bool",
          "name": "approved",
          "type": "bool"
        }
      ],
      "name": "ApprovalForAll",
      "type": "event"
    },
    {
      "anonymous": false,
      "inputs": [
        {
          "indexed": true,
          "internalType": "address",
          "name": "from",
          "type": "address"
        },
        {
          "indexed": true,
          "internalType": "address",
          "name": "to",
          "type": "address"
        },
        {
          "indexed": true,
          "internalType": "uint256",
          "name": "tokenId",
          "type": "uint256"
        }
      ],
      "name": "Transfer",
      "type": "event"
    },
    {
      "inputs": [
        {
          "internalType": "address",
          "name": "to",
          "type": "address"
        },
        {
          "internalType": "uint256",
          "name": "tokenId",
          "type": "uint256"
        }
      ],
      "name": "approve",
      "outputs": [],
      "stateMutability": "nonpayable",
      "type": "function"
    },
    {
      "inputs": [
        {
          "internalType": "address",
          "name": "owner",
          "type": "address"
        }
      ],
      "name": "balanceOf",
      "outputs": [
        {
          "internalType": "uint256",
          "name": "",
          "type": "uint256"
        }
      ],
      "stateMutability": "view",
      "type": "function"
    },
    {
      "inputs": [
        {
          "internalType": "uint256",
          "name": "tokenId",
          "type": "uint256"
        }
      ],
      "name": "getApproved",
      "outputs": [
        {
          "internalType": "address",
          "name": "",
          "type": "address"
        }
      ],
      "stateMutability": "view",
      "type": "function"
    },
    {
      "inputs": [
        {
          "internalType": "address",
          "name": "owner",
          "type": "address"
        },
        {
          "internalType": "address",
          "name": "operator",
          "type": "address"
        }
      ],
      "name": "isApprovedForAll",
      "outputs": [
        {
          "internalType": "bool",
          "name": "",
          "type": "bool"
        }
      ],
      "stateMutability": "view",
      "type": "function"
    },
    {
      "inputs": [],
      "name": "name",
      "outputs": [
        {
          "internalType": "string",
          "name": "",
          "type": "string"
        }
      ],
      "stateMutability": "view",
      "type": "function"
    },
    {
      "inputs": [
        {
          "internalType": "address",
          "name": "from",
          "type": "address"
        },
        {
          "internalType": "address",
          "name": "to",
          "type": "address"
        },
        {
          "internalType": "uint256",
          "name": "tokenId",
          "type": "uint256"
        }
      ],
      "name": "safeTransferFrom",
      "outputs": [],
      "stateMutability": "nonpayable",
      "type": "function"
    },
    {
      "inputs": [
        {
          "internalType": "address",
          "name": "from",
          "type": "address"
        },
        {
          "internalType": "address",
          "name": "to",
          "type": "address"
        },
        {
          "internalType": "uint256",
          "name": "tokenId",
          "type": "uint256"
        },
        {
          "internalType": "bytes",
          "name": "data",
          "type": "bytes"
        }
      ],
      "name": "safeTransferFrom",
      "outputs": [],
      "stateMutability": "nonpayable",
      "type": "function"
    },
    {
      "inputs": [
        {
          "internalType": "address",
          "name": "operator",
          "type": "address"
        },
        {
          "internalType": "bool",
          "name": "approved",
          "type": "bool"
        }
      ],
      "name": "setApprovalForAll",
      "outputs": [],
      "stateMutability": "nonpayable",
      "type": "function"
    },
    {
      "inputs": [
        {
          "internalType": "bytes4",
          "name": "interfaceId",
          "type": "bytes4"
        }
      ],
      "name": "supportsInterface",
      "outputs": [
        {
          "internalType": "bool",
          "name": "",
          "type": "bool"
        }
      ],
      "stateMutability": "view",
      "type": "function"
    },
    {
      "inputs": [],
      "name": "symbol",
      "outputs": [
        {
          "internalType": "string",
          "name": "",
          "type": "string"
        }
      ],
      "stateMutability": "view",
      "type": "function"
    },
    {
      "inputs": [
        {
          "internalType": "uint256",
          "name": "",
          "type": "uint256"
        }
      ],
      "name": "tokenExists",
      "outputs": [
        {
          "internalType": "bool",
          "name": "",
          "type": "bool"
        }
      ],
      "stateMutability": "view",
      "type": "function"
    },
    {
      "inputs": [
        {
          "internalType": "uint256",
          "name": "",
          "type": "uint256"
        }
      ],
      "name": "tokenOwner",
      "outputs": [
        {
          "internalType": "address",
          "name": "",
          "type": "address"
        }
      ],
      "stateMutability": "view",
      "type": "function"
    },
    {
      "inputs": [
        {
          "internalType": "uint256",
          "name": "tokenId",
          "type": "uint256"
        }
      ],
      "name": "tokenURI",
      "outputs": [
        {
          "internalType": "string",
          "name": "",
          "type": "string"
        }
      ],
      "stateMutability": "view",
      "type": "function"
    },
    {
      "inputs": [
        {
          "internalType": "address",
          "name": "from",
          "type": "address"
        },
        {
          "internalType": "address",
          "name": "to",
          "type": "address"
        },
        {
          "internalType": "uint256",
          "name": "tokenId",
          "type": "uint256"
        }
      ],
      "name": "transferFrom",
      "outputs": [],
      "stateMutability": "nonpayable",
      "type": "function"
    },
    {
      "inputs": [
        {
          "internalType": "address",
          "name": "_to",
          "type": "address"
        }
      ],
      "name": "mint",
      "outputs": [
        {
          "internalType": "uint256",
          "name": "",
          "type": "uint256"
        }
      ],
      "stateMutability": "nonpayable",
      "type": "function"
    },
    {
      "inputs": [
        {
          "internalType": "uint256",
          "name": "_tokenId",
          "type": "uint256"
        }
      ],
      "name": "ownerOf",
      "outputs": [
        {
          "internalType": "address",
          "name": "",
          "type": "address"
        }
      ],
      "stateMutability": "view",
      "type": "function"
    }
  ],
  "bytecode": "0x60806040523480156200001157600080fd5b506040518060400160405280601581526020017f6c6570726f6772616d6d6575726d61726f6361696e00000000000000000000008152506040518060400160405280600581526020017f70676d617200000000000000000000000000000000000000000000000000000081525081600090816200008f919062000324565b508060019081620000a1919062000324565b5050506200040b565b600081519050919050565b7f4e487b7100000000000000000000000000000000000000000000000000000000600052604160045260246000fd5b7f4e487b7100000000000000000000000000000000000000000000000000000000600052602260045260246000fd5b600060028204905060018216806200012c57607f821691505b602082108103620001425762000141620000e4565b5b50919050565b60008190508160005260206000209050919050565b60006020601f8301049050919050565b600082821b905092915050565b600060088302620001ac7fffffffffffffffffffffffffffffffffffffffffffffffffffffffffffffffff826200016d565b620001b886836200016d565b95508019841693508086168417925050509392505050565b6000819050919050565b6000819050919050565b600062000205620001ff620001f984620001d0565b620001da565b620001d0565b9050919050565b6000819050919050565b6200022183620001e4565b6200023962000230826200020c565b8484546200017a565b825550505050565b600090565b6200025062000241565b6200025d81848462000216565b505050565b5b8181101562000285576200027960008262000246565b60018101905062000263565b5050565b601f821115620002d4576200029e8162000148565b620002a9846200015d565b81016020851015620002b9578190505b620002d1620002c8856200015d565b83018262000262565b50505b505050565b600082821c905092915050565b6000620002f960001984600802620002d9565b1980831691505092915050565b6000620003148383620002e6565b9150826002028217905092915050565b6200032f82620000aa565b67ffffffffffffffff8111156200034b576200034a620000b5565b5b62000357825462000113565b6200036482828562000289565b600060209050601f8311600181146200039c576000841562000387578287015190505b62000393858262000306565b86555062000403565b601f198416620003ac8662000148565b60005b82811015620003d657848901518255600182019150602085019450602081019050620003af565b86831015620003f65784890151620003f2601f891682620002e6565b8355505b6001600288020188555050505b505050505050565b612945806200041b6000396000f3fe608060405234801561001057600080fd5b50600436106100ff5760003560e01c80636352211e11610097578063a22cb46511610066578063a22cb465146102e4578063b88d4fde14610300578063c87b56dd1461031c578063e985e9c51461034c576100ff565b80636352211e146102365780636a6278421461026657806370a082311461029657806395d89b41146102c6576100ff565b8063095ea7b3116100d3578063095ea7b3146101b25780631caaa487146101ce57806323b872dd146101fe57806342842e0e1461021a576100ff565b8062923f9e1461010457806301ffc9a71461013457806306fdde0314610164578063081812fc14610182575b600080fd5b61011e60048036038101906101199190611b1c565b61037c565b60405161012b9190611b64565b60405180910390f35b61014e60048036038101906101499190611bd7565b61039c565b60405161015b9190611b64565b60405180910390f35b61016c61047e565b6040516101799190611c94565b60405180910390f35b61019c60048036038101906101979190611b1c565b610510565b6040516101a99190611cf7565b60405180910390f35b6101cc60048036038101906101c79190611d3e565b610556565b005b6101e860048036038101906101e39190611b1c565b61066d565b6040516101f59190611cf7565b60405180910390f35b61021860048036038101906102139190611d7e565b6106a0565b005b610234600480360381019061022f9190611d7e565b610700565b005b610250600480360381019061024b9190611b1c565b610720565b60405161025d9190611cf7565b60405180910390f35b610280600480360381019061027b9190611dd1565b6107bd565b60405161028d9190611e0d565b60405180910390f35b6102b060048036038101906102ab9190611dd1565b61087d565b6040516102bd9190611e0d565b60405180910390f35b6102ce610934565b6040516102db9190611c94565b60405180910390f35b6102fe60048036038101906102f99190611e54565b6109c6565b005b61031a60048036038101906103159190611fc9565b6109dc565b005b61033660048036038101906103319190611b1c565b610a3e565b6040516103439190611c94565b60405180910390f35b6103666004803603810190610361919061204c565b610aa6565b6040516103739190611b64565b60405180910390f35b60086020528060005260406000206000915054906101000a900460ff1681565b60007f80ac58cd000000000000000000000000000000000000000000000000000000007bffffffffffffffffffffffffffffffffffffffffffffffffffffffff1916827bffffffffffffffffffffffffffffffffffffffffffffffffffffffff1916148061046757507f5b5e139f000000000000000000000000000000000000000000000000000000007bffffffffffffffffffffffffffffffffffffffffffffffffffffffff1916827bffffffffffffffffffffffffffffffffffffffffffffffffffffffff1916145b80610477575061047682610b3a565b5b9050919050565b60606000805461048d906120bb565b80601f01602080910402602001604051908101604052809291908181526020018280546104b9906120bb565b80156105065780601f106104db57610100808354040283529160200191610506565b820191906000526020600020905b8154815290600101906020018083116104e957829003601f168201915b5050505050905090565b600061051b82610ba4565b6004600083815260200190815260200160002060009054906101000a900473ffffffffffffffffffffffffffffffffffffffff169050919050565b600061056182610bef565b90508073ffffffffffffffffffffffffffffffffffffffff168373ffffffffffffffffffffffffffffffffffffffff16036105d1576040517f08c379a00000000000000000000000000000000000000000000000000000000081526004016105c89061215e565b60405180910390fd5b8073ffffffffffffffffffffffffffffffffffffffff166105f0610c75565b73ffffffffffffffffffffffffffffffffffffffff16148061061f575061061e81610619610c75565b610aa6565b5b61065e576040517f08c379a0000000000000000000000000000000000000000000000000000000008152600401610655906121f0565b60405180910390fd5b6106688383610c7d565b505050565b60076020528060005260406000206000915054906101000a900473ffffffffffffffffffffffffffffffffffffffff1681565b6106b16106ab610c75565b82610d36565b6106f0576040517f08c379a00000000000000000000000000000000000000000000000000000000081526004016106e790612282565b60405180910390fd5b6106fb838383610dcb565b505050565b61071b838383604051806020016040528060008152506109dc565b505050565b60006008600083815260200190815260200160002060009054906101000a900460ff16610782576040517f08c379a0000000000000000000000000000000000000000000000000000000008152600401610779906122ee565b60405180910390fd5b6007600083815260200190815260200160002060009054906101000a900473ffffffffffffffffffffffffffffffffffffffff169050919050565b60006107c960066110c4565b81600760006107d860066110da565b815260200190815260200160002060006101000a81548173ffffffffffffffffffffffffffffffffffffffff021916908373ffffffffffffffffffffffffffffffffffffffff16021790555060016008600061083460066110da565b815260200190815260200160002060006101000a81548160ff02191690831515021790555061086c8261086760066110da565b6110e8565b61087660066110da565b9050919050565b60008073ffffffffffffffffffffffffffffffffffffffff168273ffffffffffffffffffffffffffffffffffffffff16036108ed576040517f08c379a00000000000000000000000000000000000000000000000000000000081526004016108e490612380565b60405180910390fd5b600360008373ffffffffffffffffffffffffffffffffffffffff1673ffffffffffffffffffffffffffffffffffffffff168152602001908152602001600020549050919050565b606060018054610943906120bb565b80601f016020809104026020016040519081016040528092919081815260200182805461096f906120bb565b80156109bc5780601f10610991576101008083540402835291602001916109bc565b820191906000526020600020905b81548152906001019060200180831161099f57829003601f168201915b5050505050905090565b6109d86109d1610c75565b8383611106565b5050565b6109ed6109e7610c75565b83610d36565b610a2c576040517f08c379a0000000000000000000000000000000000000000000000000000000008152600401610a2390612282565b60405180910390fd5b610a3884848484611272565b50505050565b6060610a4982610ba4565b6000610a536112ce565b90506000815111610a735760405180602001604052806000815250610a9e565b80610a7d846112e5565b604051602001610a8e9291906123dc565b6040516020818303038152906040525b915050919050565b6000600560008473ffffffffffffffffffffffffffffffffffffffff1673ffffffffffffffffffffffffffffffffffffffff16815260200190815260200160002060008373ffffffffffffffffffffffffffffffffffffffff1673ffffffffffffffffffffffffffffffffffffffff16815260200190815260200160002060009054906101000a900460ff16905092915050565b60007f01ffc9a7000000000000000000000000000000000000000000000000000000007bffffffffffffffffffffffffffffffffffffffffffffffffffffffff1916827bffffffffffffffffffffffffffffffffffffffffffffffffffffffff1916149050919050565b610bad816113b3565b610bec576040517f08c379a0000000000000000000000000000000000000000000000000000000008152600401610be39061244c565b60405180910390fd5b50565b600080610bfb836113f4565b9050600073ffffffffffffffffffffffffffffffffffffffff168173ffffffffffffffffffffffffffffffffffffffff1603610c6c576040517f08c379a0000000000000000000000000000000000000000000000000000000008152600401610c639061244c565b60405180910390fd5b80915050919050565b600033905090565b816004600083815260200190815260200160002060006101000a81548173ffffffffffffffffffffffffffffffffffffffff021916908373ffffffffffffffffffffffffffffffffffffffff160217905550808273ffffffffffffffffffffffffffffffffffffffff16610cf083610bef565b73ffffffffffffffffffffffffffffffffffffffff167f8c5be1e5ebec7d5bd14f71427d1e84f3dd0314c0f7b2291e5b200ac8c7c3b92560405160405180910390a45050565b600080610d4283610bef565b90508073ffffffffffffffffffffffffffffffffffffffff168473ffffffffffffffffffffffffffffffffffffffff161480610d845750610d838185610aa6565b5b80610dc257508373ffffffffffffffffffffffffffffffffffffffff16610daa84610510565b73ffffffffffffffffffffffffffffffffffffffff16145b91505092915050565b8273ffffffffffffffffffffffffffffffffffffffff16610deb82610bef565b73ffffffffffffffffffffffffffffffffffffffff1614610e41576040517f08c379a0000000000000000000000000000000000000000000000000000000008152600401610e38906124de565b60405180910390fd5b600073ffffffffffffffffffffffffffffffffffffffff168273ffffffffffffffffffffffffffffffffffffffff1603610eb0576040517f08c379a0000000000000000000000000000000000000000000000000000000008152600401610ea790612570565b60405180910390fd5b610ebd8383836001611431565b8273ffffffffffffffffffffffffffffffffffffffff16610edd82610bef565b73ffffffffffffffffffffffffffffffffffffffff1614610f33576040517f08c379a0000000000000000000000000000000000000000000000000000000008152600401610f2a906124de565b60405180910390fd5b6004600082815260200190815260200160002060006101000a81549073ffffffffffffffffffffffffffffffffffffffff02191690556001600360008573ffffffffffffffffffffffffffffffffffffffff1673ffffffffffffffffffffffffffffffffffffffff168152602001908152602001600020600082825403925050819055506001600360008473ffffffffffffffffffffffffffffffffffffffff1673ffffffffffffffffffffffffffffffffffffffff16815260200190815260200160002060008282540192505081905550816002600083815260200190815260200160002060006101000a81548173ffffffffffffffffffffffffffffffffffffffff021916908373ffffffffffffffffffffffffffffffffffffffff160217905550808273ffffffffffffffffffffffffffffffffffffffff168473ffffffffffffffffffffffffffffffffffffffff167fddf252ad1be2c89b69c2b068fc378daa952ba7f163c4a11628f55a4df523b3ef60405160405180910390a46110bf8383836001611557565b505050565b6001816000016000828254019250508190555050565b600081600001549050919050565b61110282826040518060200160405280600081525061155d565b5050565b8173ffffffffffffffffffffffffffffffffffffffff168373ffffffffffffffffffffffffffffffffffffffff1603611174576040517f08c379a000000000000000000000000000000000000000000000000000000000815260040161116b906125dc565b60405180910390fd5b80600560008573ffffffffffffffffffffffffffffffffffffffff1673ffffffffffffffffffffffffffffffffffffffff16815260200190815260200160002060008473ffffffffffffffffffffffffffffffffffffffff1673ffffffffffffffffffffffffffffffffffffffff16815260200190815260200160002060006101000a81548160ff0219169083151502179055508173ffffffffffffffffffffffffffffffffffffffff168373ffffffffffffffffffffffffffffffffffffffff167f17307eab39ab6107e8899845ad3d59bd9653f200f220920489ca2b5937696c31836040516112659190611b64565b60405180910390a3505050565b61127d848484610dcb565b611289848484846115b8565b6112c8576040517f08c379a00000000000000000000000000000000000000000000000000000000081526004016112bf9061266e565b60405180910390fd5b50505050565b606060405180602001604052806000815250905090565b6060600060016112f48461173f565b01905060008167ffffffffffffffff81111561131357611312611e9e565b5b6040519080825280601f01601f1916602001820160405280156113455781602001600182028036833780820191505090505b509050600082602001820190505b6001156113a8578080600190039150507f3031323334353637383961626364656600000000000000000000000000000000600a86061a8153600a858161139c5761139b61268e565b5b04945060008503611353575b819350505050919050565b60008073ffffffffffffffffffffffffffffffffffffffff166113d5836113f4565b73ffffffffffffffffffffffffffffffffffffffff1614159050919050565b60006002600083815260200190815260200160002060009054906101000a900473ffffffffffffffffffffffffffffffffffffffff169050919050565b600181111561155157600073ffffffffffffffffffffffffffffffffffffffff168473ffffffffffffffffffffffffffffffffffffffff16146114c55780600360008673ffffffffffffffffffffffffffffffffffffffff1673ffffffffffffffffffffffffffffffffffffffff16815260200190815260200160002060008282546114bd91906126ec565b925050819055505b600073ffffffffffffffffffffffffffffffffffffffff168373ffffffffffffffffffffffffffffffffffffffff16146115505780600360008573ffffffffffffffffffffffffffffffffffffffff1673ffffffffffffffffffffffffffffffffffffffff16815260200190815260200160002060008282546115489190612720565b925050819055505b5b50505050565b50505050565b6115678383611892565b61157460008484846115b8565b6115b3576040517f08c379a00000000000000000000000000000000000000000000000000000000081526004016115aa9061266e565b60405180910390fd5b505050565b60006115d98473ffffffffffffffffffffffffffffffffffffffff16611aaf565b15611732578373ffffffffffffffffffffffffffffffffffffffff1663150b7a02611602610c75565b8786866040518563ffffffff1660e01b815260040161162494939291906127a9565b6020604051808303816000875af192505050801561166057506040513d601f19601f8201168201806040525081019061165d919061280a565b60015b6116e2573d8060008114611690576040519150601f19603f3d011682016040523d82523d6000602084013e611695565b606091505b5060008151036116da576040517f08c379a00000000000000000000000000000000000000000000000000000000081526004016116d19061266e565b60405180910390fd5b805181602001fd5b63150b7a0260e01b7bffffffffffffffffffffffffffffffffffffffffffffffffffffffff1916817bffffffffffffffffffffffffffffffffffffffffffffffffffffffff191614915050611737565b600190505b949350505050565b600080600090507a184f03e93ff9f4daa797ed6e38ed64bf6a1f010000000000000000831061179d577a184f03e93ff9f4daa797ed6e38ed64bf6a1f01000000000000000083816117935761179261268e565b5b0492506040810190505b6d04ee2d6d415b85acef810000000083106117da576d04ee2d6d415b85acef810000000083816117d0576117cf61268e565b5b0492506020810190505b662386f26fc10000831061180957662386f26fc1000083816117ff576117fe61268e565b5b0492506010810190505b6305f5e1008310611832576305f5e10083816118285761182761268e565b5b0492506008810190505b612710831061185757612710838161184d5761184c61268e565b5b0492506004810190505b6064831061187a57606483816118705761186f61268e565b5b0492506002810190505b600a8310611889576001810190505b80915050919050565b600073ffffffffffffffffffffffffffffffffffffffff168273ffffffffffffffffffffffffffffffffffffffff1603611901576040517f08c379a00000000000000000000000000000000000000000000000000000000081526004016118f890612883565b60405180910390fd5b61190a816113b3565b1561194a576040517f08c379a0000000000000000000000000000000000000000000000000000000008152600401611941906128ef565b60405180910390fd5b611958600083836001611431565b611961816113b3565b156119a1576040517f08c379a0000000000000000000000000000000000000000000000000000000008152600401611998906128ef565b60405180910390fd5b6001600360008473ffffffffffffffffffffffffffffffffffffffff1673ffffffffffffffffffffffffffffffffffffffff16815260200190815260200160002060008282540192505081905550816002600083815260200190815260200160002060006101000a81548173ffffffffffffffffffffffffffffffffffffffff021916908373ffffffffffffffffffffffffffffffffffffffff160217905550808273ffffffffffffffffffffffffffffffffffffffff16600073ffffffffffffffffffffffffffffffffffffffff167fddf252ad1be2c89b69c2b068fc378daa952ba7f163c4a11628f55a4df523b3ef60405160405180910390a4611aab600083836001611557565b5050565b6000808273ffffffffffffffffffffffffffffffffffffffff163b119050919050565b6000604051905090565b600080fd5b600080fd5b6000819050919050565b611af981611ae6565b8114611b0457600080fd5b50565b600081359050611b1681611af0565b92915050565b600060208284031215611b3257611b31611adc565b5b6000611b4084828501611b07565b91505092915050565b60008115159050919050565b611b5e81611b49565b82525050565b6000602082019050611b796000830184611b55565b92915050565b60007fffffffff0000000000000000000000000000000000000000000000000000000082169050919050565b611bb481611b7f565b8114611bbf57600080fd5b50565b600081359050611bd181611bab565b92915050565b600060208284031215611bed57611bec611adc565b5b6000611bfb84828501611bc2565b91505092915050565b600081519050919050565b600082825260208201905092915050565b60005b83811015611c3e578082015181840152602081019050611c23565b60008484015250505050565b6000601f19601f8301169050919050565b6000611c6682611c04565b611c708185611c0f565b9350611c80818560208601611c20565b611c8981611c4a565b840191505092915050565b60006020820190508181036000830152611cae8184611c5b565b905092915050565b600073ffffffffffffffffffffffffffffffffffffffff82169050919050565b6000611ce182611cb6565b9050919050565b611cf181611cd6565b82525050565b6000602082019050611d0c6000830184611ce8565b92915050565b611d1b81611cd6565b8114611d2657600080fd5b50565b600081359050611d3881611d12565b92915050565b60008060408385031215611d5557611d54611adc565b5b6000611d6385828601611d29565b9250506020611d7485828601611b07565b9150509250929050565b600080600060608486031215611d9757611d96611adc565b5b6000611da586828701611d29565b9350506020611db686828701611d29565b9250506040611dc786828701611b07565b9150509250925092565b600060208284031215611de757611de6611adc565b5b6000611df584828501611d29565b91505092915050565b611e0781611ae6565b82525050565b6000602082019050611e226000830184611dfe565b92915050565b611e3181611b49565b8114611e3c57600080fd5b50565b600081359050611e4e81611e28565b92915050565b60008060408385031215611e6b57611e6a611adc565b5b6000611e7985828601611d29565b9250506020611e8a85828601611e3f565b9150509250929050565b600080fd5b600080fd5b7f4e487b7100000000000000000000000000000000000000000000000000000000600052604160045260246000fd5b611ed682611c4a565b810181811067ffffffffffffffff82111715611ef557611ef4611e9e565b5b80604052505050565b6000611f08611ad2565b9050611f148282611ecd565b919050565b600067ffffffffffffffff821115611f3457611f33611e9e565b5b611f3d82611c4a565b9050602081019050919050565b82818337600083830152505050565b6000611f6c611f6784611f19565b611efe565b905082815260208101848484011115611f8857611f87611e99565b5b611f93848285611f4a565b509392505050565b600082601f830112611fb057611faf611e94565b5b8135611fc0848260208601611f59565b91505092915050565b60008060008060808587031215611fe357611fe2611adc565b5b6000611ff187828801611d29565b945050602061200287828801611d29565b935050604061201387828801611b07565b925050606085013567ffffffffffffffff81111561203457612033611ae1565b5b61204087828801611f9b565b91505092959194509250565b6000806040838503121561206357612062611adc565b5b600061207185828601611d29565b925050602061208285828601611d29565b9150509250929050565b7f4e487b7100000000000000000000000000000000000000000000000000000000600052602260045260246000fd5b600060028204905060018216806120d357607f821691505b6020821081036120e6576120e561208c565b5b50919050565b7f4552433732313a20617070726f76616c20746f2063757272656e74206f776e6560008201527f7200000000000000000000000000000000000000000000000000000000000000602082015250565b6000612148602183611c0f565b9150612153826120ec565b604082019050919050565b600060208201905081810360008301526121778161213b565b9050919050565b7f4552433732313a20617070726f76652063616c6c6572206973206e6f7420746f60008201527f6b656e206f776e6572206f7220617070726f76656420666f7220616c6c000000602082015250565b60006121da603d83611c0f565b91506121e58261217e565b604082019050919050565b60006020820190508181036000830152612209816121cd565b9050919050565b7f4552433732313a2063616c6c6572206973206e6f7420746f6b656e206f776e6560008201527f72206f7220617070726f76656400000000000000000000000000000000000000602082015250565b600061226c602d83611c0f565b915061227782612210565b604082019050919050565b6000602082019050818103600083015261229b8161225f565b9050919050565b7f746f6b656e20646f6573206e6f74206578697374000000000000000000000000600082015250565b60006122d8601483611c0f565b91506122e3826122a2565b602082019050919050565b60006020820190508181036000830152612307816122cb565b9050919050565b7f4552433732313a2061646472657373207a65726f206973206e6f74206120766160008201527f6c6964206f776e65720000000000000000000000000000000000000000000000602082015250565b600061236a602983611c0f565b91506123758261230e565b604082019050919050565b600060208201905081810360008301526123998161235d565b9050919050565b600081905092915050565b60006123b682611c04565b6123c081856123a0565b93506123d0818560208601611c20565b80840191505092915050565b60006123e882856123ab565b91506123f482846123ab565b91508190509392505050565b7f4552433732313a20696e76616c696420746f6b656e2049440000000000000000600082015250565b6000612436601883611c0f565b915061244182612400565b602082019050919050565b6000602082019050818103600083015261246581612429565b9050919050565b7f4552433732313a207472616e736665722066726f6d20696e636f72726563742060008201527f6f776e6572000000000000000000000000000000000000000000000000000000602082015250565b60006124c8602583611c0f565b91506124d38261246c565b604082019050919050565b600060208201905081810360008301526124f7816124bb565b9050919050565b7f4552433732313a207472616e7366657220746f20746865207a65726f2061646460008201527f7265737300000000000000000000000000000000000000000000000000000000602082015250565b600061255a602483611c0f565b9150612565826124fe565b604082019050919050565b600060208201905081810360008301526125898161254d565b9050919050565b7f4552433732313a20617070726f766520746f2063616c6c657200000000000000600082015250565b60006125c6601983611c0f565b91506125d182612590565b602082019050919050565b600060208201905081810360008301526125f5816125b9565b9050919050565b7f4552433732313a207472616e7366657220746f206e6f6e20455243373231526560008201527f63656976657220696d706c656d656e7465720000000000000000000000000000602082015250565b6000612658603283611c0f565b9150612663826125fc565b604082019050919050565b600060208201905081810360008301526126878161264b565b9050919050565b7f4e487b7100000000000000000000000000000000000000000000000000000000600052601260045260246000fd5b7f4e487b7100000000000000000000000000000000000000000000000000000000600052601160045260246000fd5b60006126f782611ae6565b915061270283611ae6565b925082820390508181111561271a576127196126bd565b5b92915050565b600061272b82611ae6565b915061273683611ae6565b925082820190508082111561274e5761274d6126bd565b5b92915050565b600081519050919050565b600082825260208201905092915050565b600061277b82612754565b612785818561275f565b9350612795818560208601611c20565b61279e81611c4a565b840191505092915050565b60006080820190506127be6000830187611ce8565b6127cb6020830186611ce8565b6127d86040830185611dfe565b81810360608301526127ea8184612770565b905095945050505050565b60008151905061280481611bab565b92915050565b6000602082840312156128205761281f611adc565b5b600061282e848285016127f5565b91505092915050565b7f4552433732313a206d696e7420746f20746865207a65726f2061646472657373600082015250565b600061286d602083611c0f565b915061287882612837565b602082019050919050565b6000602082019050818103600083015261289c81612860565b9050919050565b7f4552433732313a20746f6b656e20616c7265616479206d696e74656400000000600082015250565b60006128d9601c83611c0f565b91506128e4826128a3565b602082019050919050565b60006020820190508181036000830152612908816128cc565b905091905056fea26469706673582212205e82df5b78c77b88bb2072eb94999b7dd575e97f241c4f76b289d5c20f61c61b64736f6c63430008100033",
  "immutableReferences": {},
  "source": "pragma solidity 0.8.16;\n\nimport \"@openzeppelin/contracts/token/ERC721/ERC721.sol\";\nimport \"@openzeppelin/contracts/utils/Counters.sol\";\n\ncontract NFT is ERC721 {\n    using Counters for Counters.Counter;\n    Counters.Counter private _tokenIdCounter;\n\n    mapping(uint256 => address) public tokenOwner;\n    mapping(uint256 => bool) public tokenExists;\n\n    constructor() ERC721(\"leprogrammeurmarocain\", \"pgmar\") {}\n\n    function mint(address _to) public returns (uint256) {\n        _tokenIdCounter.increment();\n        tokenOwner[_tokenIdCounter.current()] = _to;\n        tokenExists[_tokenIdCounter.current()] = true;\n        _safeMint(_to, _tokenIdCounter.current());\n\n        return _tokenIdCounter.current();\n    }\n\n    function ownerOf(uint256 _tokenId) public view override returns (address) {\n        require(tokenExists[_tokenId], \"token does not exist\");\n        return tokenOwner[_tokenId];\n    }\n}\n",
  "sourcePath": "/home/senyou/leprogrammeurmarocain/firstNft/contracts/NFT.sol",
  "compiler": {
    "name": "solc",
    "version": "0.8.16+commit.07a7930e.Emscripten.clang"
  },
  "schemaVersion": "3.4.9",
  "updatedAt": "2023-01-16T15:17:09.527Z",
  "devdoc": {
    "kind": "dev",
    "methods": {
      "approve(address,uint256)": {
        "details": "See {IERC721-approve}."
      },
      "balanceOf(address)": {
        "details": "See {IERC721-balanceOf}."
      },
      "getApproved(uint256)": {
        "details": "See {IERC721-getApproved}."
      },
      "isApprovedForAll(address,address)": {
        "details": "See {IERC721-isApprovedForAll}."
      },
      "name()": {
        "details": "See {IERC721Metadata-name}."
      },
      "safeTransferFrom(address,address,uint256)": {
        "details": "See {IERC721-safeTransferFrom}."
      },
      "safeTransferFrom(address,address,uint256,bytes)": {
        "details": "See {IERC721-safeTransferFrom}."
      },
      "setApprovalForAll(address,bool)": {
        "details": "See {IERC721-setApprovalForAll}."
      },
      "supportsInterface(bytes4)": {
        "details": "See {IERC165-supportsInterface}."
      },
      "symbol()": {
        "details": "See {IERC721Metadata-symbol}."
      },
      "tokenURI(uint256)": {
        "details": "See {IERC721Metadata-tokenURI}."
      },
      "transferFrom(address,address,uint256)": {
        "details": "See {IERC721-transferFrom}."
      }
    },
    "version": 1
  },
  "userdoc": {
    "kind": "user",
    "methods": {},
    "version": 1
  }
}